{
  "_format": "hh-sol-artifact-1",
  "contractName": "CurrencyConverter",
  "sourceName": "contracts/CurrencyConverter.sol",
  "abi": [
    {
      "inputs": [],
      "stateMutability": "nonpayable",
      "type": "constructor"
    },
    {
      "inputs": [
        {
          "internalType": "address",
          "name": "owner",
          "type": "address"
        }
      ],
      "name": "OwnableInvalidOwner",
      "type": "error"
    },
    {
      "inputs": [
        {
          "internalType": "address",
          "name": "account",
          "type": "address"
        }
      ],
      "name": "OwnableUnauthorizedAccount",
      "type": "error"
    },
    {
      "anonymous": false,
      "inputs": [
        {
          "indexed": false,
          "internalType": "uint256",
          "name": "feedId",
          "type": "uint256"
        },
        {
          "indexed": false,
          "internalType": "address",
          "name": "newAddress",
          "type": "address"
        },
        {
          "indexed": false,
          "internalType": "string",
          "name": "description",
          "type": "string"
        }
      ],
      "name": "FeedAddressUpdated",
      "type": "event"
    },
    {
      "anonymous": false,
      "inputs": [
        {
          "indexed": true,
          "internalType": "address",
          "name": "previousOwner",
          "type": "address"
        },
        {
          "indexed": true,
          "internalType": "address",
          "name": "newOwner",
          "type": "address"
        }
      ],
      "name": "OwnershipTransferred",
      "type": "event"
    },
    {
      "anonymous": false,
      "inputs": [
        {
          "indexed": false,
          "internalType": "string",
          "name": "description",
          "type": "string"
        },
        {
          "indexed": false,
          "internalType": "int256",
          "name": "price",
          "type": "int256"
        }
      ],
      "name": "PriceRequested",
      "type": "event"
    },
    {
      "inputs": [
        {
          "internalType": "uint256",
          "name": "",
          "type": "uint256"
        }
      ],
      "name": "feeds",
      "outputs": [
        {
          "internalType": "contract AggregatorV3Interface",
          "name": "aggregator",
          "type": "address"
        },
        {
          "internalType": "string",
          "name": "description",
          "type": "string"
        }
      ],
      "stateMutability": "view",
      "type": "function"
    },
    {
      "inputs": [
        {
          "internalType": "uint256",
          "name": "feedId",
          "type": "uint256"
        }
      ],
      "name": "getLastFetchedPrice",
      "outputs": [
        {
          "internalType": "int256",
          "name": "",
          "type": "int256"
        }
      ],
      "stateMutability": "view",
      "type": "function"
    },
    {
      "inputs": [
        {
          "internalType": "uint256",
          "name": "",
          "type": "uint256"
        }
      ],
      "name": "lastFetchedPrice",
      "outputs": [
        {
          "internalType": "int256",
          "name": "",
          "type": "int256"
        }
      ],
      "stateMutability": "view",
      "type": "function"
    },
    {
      "inputs": [],
      "name": "owner",
      "outputs": [
        {
          "internalType": "address",
          "name": "",
          "type": "address"
        }
      ],
      "stateMutability": "view",
      "type": "function"
    },
    {
      "inputs": [],
      "name": "renounceOwnership",
      "outputs": [],
      "stateMutability": "nonpayable",
      "type": "function"
    },
    {
      "inputs": [
        {
          "internalType": "address",
          "name": "newOwner",
          "type": "address"
        }
      ],
      "name": "transferOwnership",
      "outputs": [],
      "stateMutability": "nonpayable",
      "type": "function"
    },
    {
      "inputs": [
        {
          "internalType": "uint256",
          "name": "feedId",
          "type": "uint256"
        },
        {
          "internalType": "address",
          "name": "newAddress",
          "type": "address"
        }
      ],
      "name": "updateFeedAddress",
      "outputs": [],
      "stateMutability": "nonpayable",
      "type": "function"
    },
    {
      "inputs": [
        {
          "internalType": "uint256",
          "name": "feedId",
          "type": "uint256"
        }
      ],
      "name": "updatePrice",
      "outputs": [],
      "stateMutability": "nonpayable",
      "type": "function"
    }
  ],
  "bytecode": "0x60806040523480156200001157600080fd5b5033600073ffffffffffffffffffffffffffffffffffffffff168173ffffffffffffffffffffffffffffffffffffffff1603620000885760006040517f1e4fbdf70000000000000000000000000000000000000000000000000000000081526004016200007f919062000551565b60405180910390fd5b62000099816200044860201b60201c565b506040518060400160405280735fb1616f78da7afc9ff79e0371741a747d2a7f2273ffffffffffffffffffffffffffffffffffffffff1681526020016040518060400160405280600781526020017f4254432f45544800000000000000000000000000000000000000000000000000815250815250600160006001815260200190815260200160002060008201518160000160006101000a81548173ffffffffffffffffffffffffffffffffffffffff021916908373ffffffffffffffffffffffffffffffffffffffff1602179055506020820151816001019081620001809190620007e8565b509050506040518060400160405280731b44f3514812d835eb1bdb0acb33d3fa3351ee4373ffffffffffffffffffffffffffffffffffffffff1681526020016040518060400160405280600781526020017f4254432f55534400000000000000000000000000000000000000000000000000815250815250600160006002815260200190815260200160002060008201518160000160006101000a81548173ffffffffffffffffffffffffffffffffffffffff021916908373ffffffffffffffffffffffffffffffffffffffff16021790555060208201518160010190816200026a9190620007e8565b50905050604051806040016040528073694aa1769357215de4fac081bf1f309adc32530673ffffffffffffffffffffffffffffffffffffffff1681526020016040518060400160405280600781526020017f4554482f55534400000000000000000000000000000000000000000000000000815250815250600160006003815260200190815260200160002060008201518160000160006101000a81548173ffffffffffffffffffffffffffffffffffffffff021916908373ffffffffffffffffffffffffffffffffffffffff1602179055506020820151816001019081620003549190620007e8565b50905050604051806040016040528073c59e3633baac79493d908e63626716e204a45edf73ffffffffffffffffffffffffffffffffffffffff1681526020016040518060400160405280600881526020017f4c494e4b2f555344000000000000000000000000000000000000000000000000815250815250600160006004815260200190815260200160002060008201518160000160006101000a81548173ffffffffffffffffffffffffffffffffffffffff021916908373ffffffffffffffffffffffffffffffffffffffff16021790555060208201518160010190816200043e9190620007e8565b50905050620008cf565b60008060009054906101000a900473ffffffffffffffffffffffffffffffffffffffff169050816000806101000a81548173ffffffffffffffffffffffffffffffffffffffff021916908373ffffffffffffffffffffffffffffffffffffffff1602179055508173ffffffffffffffffffffffffffffffffffffffff168173ffffffffffffffffffffffffffffffffffffffff167f8be0079c531659141344cd1fd0a4f28419497f9722a3daafe3b4186f6b6457e060405160405180910390a35050565b600073ffffffffffffffffffffffffffffffffffffffff82169050919050565b600062000539826200050c565b9050919050565b6200054b816200052c565b82525050565b600060208201905062000568600083018462000540565b92915050565b600081519050919050565b7f4e487b7100000000000000000000000000000000000000000000000000000000600052604160045260246000fd5b7f4e487b7100000000000000000000000000000000000000000000000000000000600052602260045260246000fd5b60006002820490506001821680620005f057607f821691505b602082108103620006065762000605620005a8565b5b50919050565b60008190508160005260206000209050919050565b60006020601f8301049050919050565b600082821b905092915050565b600060088302620006707fffffffffffffffffffffffffffffffffffffffffffffffffffffffffffffffff8262000631565b6200067c868362000631565b95508019841693508086168417925050509392505050565b6000819050919050565b6000819050919050565b6000620006c9620006c3620006bd8462000694565b6200069e565b62000694565b9050919050565b6000819050919050565b620006e583620006a8565b620006fd620006f482620006d0565b8484546200063e565b825550505050565b600090565b6200071462000705565b62000721818484620006da565b505050565b5b8181101562000749576200073d6000826200070a565b60018101905062000727565b5050565b601f821115620007985762000762816200060c565b6200076d8462000621565b810160208510156200077d578190505b620007956200078c8562000621565b83018262000726565b50505b505050565b600082821c905092915050565b6000620007bd600019846008026200079d565b1980831691505092915050565b6000620007d88383620007aa565b9150826002028217905092915050565b620007f3826200056e565b67ffffffffffffffff8111156200080f576200080e62000579565b5b6200081b8254620005d7565b620008288282856200074d565b600060209050601f8311600181146200086057600084156200084b578287015190505b620008578582620007ca565b865550620008c7565b601f19841662000870866200060c565b60005b828110156200089a5784890151825560018201915060208501945060208101905062000873565b86831015620008ba5784890151620008b6601f891682620007aa565b8355505b6001600288020188555050505b505050505050565b610f4480620008df6000396000f3fe608060405234801561001057600080fd5b50600436106100885760003560e01c80638d6cc56d1161005b5780638d6cc56d146101145780638da5cb5b14610130578063c0351f5c1461014e578063f2fde38b1461017e57610088565b80630b0eebe41461008d5780630e168cf3146100bd5780634a5479f3146100d9578063715018a61461010a575b600080fd5b6100a760048036038101906100a2919061084f565b61019a565b6040516100b49190610895565b60405180910390f35b6100d760048036038101906100d2919061090e565b61020c565b005b6100f360048036038101906100ee919061084f565b61037c565b604051610101929190610a3d565b60405180910390f35b610112610448565b005b61012e6004803603810190610129919061084f565b61045c565b005b6101386105fa565b6040516101459190610a7c565b60405180910390f35b6101686004803603810190610163919061084f565b610623565b6040516101759190610895565b60405180910390f35b61019860048036038101906101939190610a97565b61063b565b005b6000806002600084815260200190815260200160002054036101f1576040517f08c379a00000000000000000000000000000000000000000000000000000000081526004016101e890610b10565b60405180910390fd5b60026000838152602001908152602001600020549050919050565b6102146106c1565b600073ffffffffffffffffffffffffffffffffffffffff168173ffffffffffffffffffffffffffffffffffffffff1603610283576040517f08c379a000000000000000000000000000000000000000000000000000000000815260040161027a90610ba2565b60405180910390fd5b600082118015610294575060048211155b6102d3576040517f08c379a00000000000000000000000000000000000000000000000000000000081526004016102ca90610c0e565b60405180910390fd5b806001600084815260200190815260200160002060000160006101000a81548173ffffffffffffffffffffffffffffffffffffffff021916908373ffffffffffffffffffffffffffffffffffffffff1602179055507f776d4e4061bc9d2460fc798429abcb89b43f7c5d6c2b36b34951e38af127bbc282826001600086815260200190815260200160002060010160405161037093929190610d36565b60405180910390a15050565b60016020528060005260406000206000915090508060000160009054906101000a900473ffffffffffffffffffffffffffffffffffffffff16908060010180546103c590610c6c565b80601f01602080910402602001604051908101604052809291908181526020018280546103f190610c6c565b801561043e5780601f106104135761010080835404028352916020019161043e565b820191906000526020600020905b81548152906001019060200180831161042157829003601f168201915b5050505050905082565b6104506106c1565b61045a6000610748565b565b6000600160008381526020019081526020016000209050600073ffffffffffffffffffffffffffffffffffffffff168160000160009054906101000a900473ffffffffffffffffffffffffffffffffffffffff1673ffffffffffffffffffffffffffffffffffffffff1603610506576040517f08c379a00000000000000000000000000000000000000000000000000000000081526004016104fd90610dc0565b60405180910390fd5b60008160000160009054906101000a900473ffffffffffffffffffffffffffffffffffffffff1673ffffffffffffffffffffffffffffffffffffffff1663feaf968c6040518163ffffffff1660e01b815260040160a060405180830381865afa158015610577573d6000803e3d6000fd5b505050506040513d601f19601f8201168201806040525081019061059b9190610e63565b5050509150508060026000858152602001908152602001600020819055507f258bec2dd17c2c58a631f67d75e4a7703ba5c551ba9428e15fd9b7814972a7a982600101826040516105ed929190610ede565b60405180910390a1505050565b60008060009054906101000a900473ffffffffffffffffffffffffffffffffffffffff16905090565b60026020528060005260406000206000915090505481565b6106436106c1565b600073ffffffffffffffffffffffffffffffffffffffff168173ffffffffffffffffffffffffffffffffffffffff16036106b55760006040517f1e4fbdf70000000000000000000000000000000000000000000000000000000081526004016106ac9190610a7c565b60405180910390fd5b6106be81610748565b50565b6106c961080c565b73ffffffffffffffffffffffffffffffffffffffff166106e76105fa565b73ffffffffffffffffffffffffffffffffffffffff16146107465761070a61080c565b6040517f118cdaa700000000000000000000000000000000000000000000000000000000815260040161073d9190610a7c565b60405180910390fd5b565b60008060009054906101000a900473ffffffffffffffffffffffffffffffffffffffff169050816000806101000a81548173ffffffffffffffffffffffffffffffffffffffff021916908373ffffffffffffffffffffffffffffffffffffffff1602179055508173ffffffffffffffffffffffffffffffffffffffff168173ffffffffffffffffffffffffffffffffffffffff167f8be0079c531659141344cd1fd0a4f28419497f9722a3daafe3b4186f6b6457e060405160405180910390a35050565b600033905090565b600080fd5b6000819050919050565b61082c81610819565b811461083757600080fd5b50565b60008135905061084981610823565b92915050565b60006020828403121561086557610864610814565b5b60006108738482850161083a565b91505092915050565b6000819050919050565b61088f8161087c565b82525050565b60006020820190506108aa6000830184610886565b92915050565b600073ffffffffffffffffffffffffffffffffffffffff82169050919050565b60006108db826108b0565b9050919050565b6108eb816108d0565b81146108f657600080fd5b50565b600081359050610908816108e2565b92915050565b6000806040838503121561092557610924610814565b5b60006109338582860161083a565b9250506020610944858286016108f9565b9150509250929050565b6000819050919050565b600061097361096e610969846108b0565b61094e565b6108b0565b9050919050565b600061098582610958565b9050919050565b60006109978261097a565b9050919050565b6109a78161098c565b82525050565b600081519050919050565b600082825260208201905092915050565b60005b838110156109e75780820151818401526020810190506109cc565b60008484015250505050565b6000601f19601f8301169050919050565b6000610a0f826109ad565b610a1981856109b8565b9350610a298185602086016109c9565b610a32816109f3565b840191505092915050565b6000604082019050610a52600083018561099e565b8181036020830152610a648184610a04565b90509392505050565b610a76816108d0565b82525050565b6000602082019050610a916000830184610a6d565b92915050565b600060208284031215610aad57610aac610814565b5b6000610abb848285016108f9565b91505092915050565b7f5072696365206e6f742066657463686564207965740000000000000000000000600082015250565b6000610afa6015836109b8565b9150610b0582610ac4565b602082019050919050565b60006020820190508181036000830152610b2981610aed565b9050919050565b7f4e657720616464726573732063616e6e6f7420626520746865207a65726f206160008201527f6464726573732e00000000000000000000000000000000000000000000000000602082015250565b6000610b8c6027836109b8565b9150610b9782610b30565b604082019050919050565b60006020820190508181036000830152610bbb81610b7f565b9050919050565b7f46656564204944206f7574206f662072616e67652e0000000000000000000000600082015250565b6000610bf86015836109b8565b9150610c0382610bc2565b602082019050919050565b60006020820190508181036000830152610c2781610beb565b9050919050565b610c3781610819565b82525050565b7f4e487b7100000000000000000000000000000000000000000000000000000000600052602260045260246000fd5b60006002820490506001821680610c8457607f821691505b602082108103610c9757610c96610c3d565b5b50919050565b60008190508160005260206000209050919050565b60008154610cbf81610c6c565b610cc981866109b8565b94506001821660008114610ce45760018114610cfa57610d2d565b60ff198316865281151560200286019350610d2d565b610d0385610c9d565b60005b83811015610d2557815481890152600182019150602081019050610d06565b808801955050505b50505092915050565b6000606082019050610d4b6000830186610c2e565b610d586020830185610a6d565b8181036040830152610d6a8184610cb2565b9050949350505050565b7f46656564206e6f7420666f756e64000000000000000000000000000000000000600082015250565b6000610daa600e836109b8565b9150610db582610d74565b602082019050919050565b60006020820190508181036000830152610dd981610d9d565b9050919050565b600069ffffffffffffffffffff82169050919050565b610dff81610de0565b8114610e0a57600080fd5b50565b600081519050610e1c81610df6565b92915050565b610e2b8161087c565b8114610e3657600080fd5b50565b600081519050610e4881610e22565b92915050565b600081519050610e5d81610823565b92915050565b600080600080600060a08688031215610e7f57610e7e610814565b5b6000610e8d88828901610e0d565b9550506020610e9e88828901610e39565b9450506040610eaf88828901610e4e565b9350506060610ec088828901610e4e565b9250506080610ed188828901610e0d565b9150509295509295909350565b60006040820190508181036000830152610ef88185610cb2565b9050610f076020830184610886565b939250505056fea2646970667358221220ff59634c52952692fb13dec73c8f2bf8a7000a296517d51e1c00bc5ab54ddbee64736f6c63430008160033",
  "linkReferences": {},
  "deployedLinkReferences": {}
}